S02700004F6E2D64656D616E642054726166666963206C6967687420636F6E74726F6C2E7372656372
S11300000C9434000C9448000C9446000C94460064
S11300100C9446000C9404050C9446000C94460081
S11300200C9446000C9446000C9446000C94460034
S11300300C9446000C9446000C9446000C94460024
S11300400C9446000C9446000C9446000C94460014
S11300500C94460013011D0152016901A001FA012B
S1130060290207017302C30211241FBECFE5D8E0A1
S1130070DEBFCDBF20E0A0E6B0E001C01D92A537F1
S1130080B207E1F70E9426030C943C050C9400008F
S11300901F920F920FB60F9211248F9380916A00D2
S11300A0833041F080916A00843021F080916A00AD
S11300B0853039F481E080936B0080916A008093ED
S11300C074008F910F900FBE0F901F901895813080
S11300D0F9F088F0823049F1833099F561E080E0ED
S11300E00E941F0361E081E00E941F0361E082E03F
S11300F00E941F03089561E080E00E941B0361E0F9
S113010081E00E941F0361E082E00E941F030895C2
S113011061E080E00E941F0361E081E00E9423030C
S113012061E082E00E941F03089561E080E00E9484
S11301301F0361E081E00E941F0361E082E00E94EE
S11301401B0308958130F9F088F0823049F183303F
S113015099F560E080E00E941F0360E081E00E9466
S11301601F0360E082E00E941F03089560E080E0C6
S11301700E941B0360E081E00E941F0360E082E0B4
S11301800E941F03089560E080E00E941F0360E066
S113019081E00E94230360E082E00E941F0308952F
S11301A060E080E00E941F0360E081E00E941F0382
S11301B060E082E00E941B03089560E080E00E94FA
S11301C0170360E081E00E94170360E082E00E9470
S11301D0170383E00E94A20061E080E00E941703FD
S11301E061E081E00E94170361E082E00E9417034E
S11301F083E00E94670063E082E00E941303789426
S11302000E94E8040E94F00410926B000895E091AB
S11302106B008E2F90E08A309105C8F7FC01E65DF3
S1130220FF4F0C94360510926A0080916A00809307
S1130230740082E080936B00EACF81E080936A00CF
S113024080917400853021F486E080936B001BC09C
S113025080917400833021F080917400843099F48B
S113026089E080936B0083E00E94670083E00E9432
S1130270A2000E94FB04609370007093710080934D
S113028072009093730080916A00809374000E94BE
S1130290FB0460936C0070936D0080936E009093E8
S11302A06F00B5CF82E080936A0080916A008093EA
S11302B0740083E080936B000E94A2000E94FB0400
S11302C060936C0070936D0080936E0090936F0048
S11302D09ECF83E080936A0080E00E94670082E002
S11302E00E94A2000E94FB0400916C0010916D001A
S11302F020916E0030916F0008571C4E2F4F3F4FD6
S1130300601771078207930708F481CF0E94FB04EA
S113031060936C0070936D0080936E0090936F00F7
S113032060937000709371008093720090937300D7
S113033084E080936B0080916A008093740067CF9F
S113034084E080936A000E94FB0400917000109185
S11303507100209172003091730006501F4F2F4F8F
S11303603F4F601771078207930768F00E94FB04F0
S11303706093700070937100809372009093730087
S113038081E00E9467000E94FB0400916C001091C0
S11303906D0020916E0030916F0008571C4E2F4F56
S11303A03F4F601771078207930708F430CF0E940C
S11303B0FB0460936C0070936D0080936E009093C7
S11303C06F0080917400833041F485E080936B006A
S11303D080916A00809374001ACF809174008530F4
S11303E009F015CF83E080936B0080916A008093BD
S11303F074000DCF85E080936A0082E00E9467005C
S113040083E00E94A2000E94FB0400916C00109102
S11304106D0020916E0030916F0008571C4E2F4FD5
S11304203F4F601771078207930708F4F0CE0E94CC
S1130430FB0460936C0070936D0080936E00909346
S11304406F0084E080936B0080916A008093740055
S1130450DECE86E080936A0082E00E94670080E03E
S11304600E94A2000E94FB0400916C0010916D0098
S113047020916E0030916F0008571C4E2F4F3F4F54
S1130480601771078207930708F4C1CE0E94FB042A
S113049060936C0070936D0080936E0090936F0076
S11304A080917400813041F482E080936B008091EC
S11304B06A0080937400ABCE80917400893009F097
S11304C0A6CE88E080936B0080916A0080937400CC
S11304D00E94FB046093700070937100809372001B
S11304E09093730094CE88E080936A000E94FB048A
S11304F0009170001091710020917200309173008E
S113050006501F4F2F4F3F4F601771078207930705
S113051080F00E94FB0460937000709371008093DC
S113052072009093730081E00E94670081E00E9452
S1130530A20060E080E00E941B030E94FB04009183
S11305406C0010916D0020916E0030916F0008577F
S11305501C4E2F4F3F4F601771078207930708F413
S113056056CE0E94FB0460936C0070936D008093E0
S11305706E0090936F0082E080936B0080916A001C
S11305808093740044CE89E080936A000E94FB0447
S113059000917000109171002091720030917300ED
S11305A006501F4F2F4F3F4F601771078207930765
S11305B080F00E94FB04609370007093710080933C
S11305C072009093730081E00E94670081E00E94B2
S11305D0A20060E082E00E941B030E94FB040091E1
S11305E06C0010916D0020916E0030916F000857DF
S11305F01C4E2F4F3F4F601771078207930708F473
S113060006CE0E94FB0460936C0070936D0080938F
S11306106E0090936F0086E080936B0080916A0077
S113062080937400F4CD40E00E942D03089541E0CE
S11306300E942D03089541E00E94C703089540E0FD
S11306400E94C70308950E94CC0408950E94DD000F
S11306500E94070180E090E00895613051F138F084
S1130660623009F448C0633009F466C086C04111A1
S11306700FC04AB321E030E0B90102C0660F771F12
S11306808A95E2F7CB01809584238ABB80E00895A4
S1130690413009F074C04AB321E030E0B90102C02E
S11306A0660F771F8A95E2F7CB01842B8ABB80E023
S11306B0089541110FC047B321E030E0B90102C0F1
S11306C0660F771F8A95E2F7CB018095842387BB59
S11306D080E00895413009F054C047B321E030E090
S11306E0B90102C0660F771F8A95E2F7CB01842B0C
S11306F087BB80E0089541110FC044B321E030E08E
S1130700B90102C0660F771F8A95E2F7CB01809585
S1130710842384BB80E008954130A9F544B321E0EB
S113072030E0B90102C0660F771F8A95E2F7CB016A
S1130730842B84BB80E0089541110FC041B321E0B4
S113074030E0B90102C0660F771F8A95E2F7CB014A
S11307508095842381BB80E008954130B1F441B396
S113076021E030E0B90102C0660F771F8A95E2F7F5
S1130770CB01842B81BB80E0089581E0089583E060
S1130780089583E0089583E0089583E00895613037
S113079051F138F0623009F448C0633009F466C09E
S11307A086C041110FC04BB321E030E0B90102C053
S11307B0660F771F8A95E2F7CB01809584238BBB64
S11307C080E00895413009F074C04BB321E030E07B
S11307D0B90102C0660F771F8A95E2F7CB01842B1B
S11307E08BBB80E0089541110FC048B321E030E095
S11307F0B90102C0660F771F8A95E2F7CB01809595
S1130800842388BB80E00895413009F054C048B384
S113081021E030E0B90102C0660F771F8A95E2F744
S1130820CB01842B88BB80E0089541110FC045B3F0
S113083021E030E0B90102C0660F771F8A95E2F724
S1130840CB018095842385BB80E008954130A9F5D0
S113085045B321E030E0B90102C0660F771F8A95E5
S1130860E2F7CB01842B85BB80E0089541110FC0D2
S113087042B321E030E0B90102C0660F771F8A95C8
S1130880E2F7CB018095842382BB80E00895413058
S1130890B1F442B321E030E0B90102C0660F771F22
S11308A08A95E2F7CB01842B82BB80E0089581E036
S11308B0089584E0089584E0089584E0089584E030
S11308C008956130F9F030F06230A1F1633009F439
S11308D049C060C099B321E030E0B901082E02C0DC
S11308E0660F771F0A94E2F7292F30E02623372377
S11308F0B90102C0759567958A95E2F7FA0160839C
S113090080E0089596B321E030E0B901082E02C0DA
S1130910660F771F0A94E2F7292F30E02623372346
S1130920B90102C0759567958A95E2F7FA0160836B
S113093080E0089593B321E030E0B901082E02C0AD
S1130940660F771F0A94E2F7292F30E02623372316
S1130950B90102C0759567958A95E2F7FA0160833B
S113096080E0089590B321E030E0B901082E02C080
S1130970660F771F0A94E2F7292F30E026233723E6
S1130980B90102C0759567958A95E2F7FA0160830B
S113099080E0089581E008950F931F93CF93DF9330
S11309A01F92CDB7DEB7182F062FAE014F5F5F4FF2
S11309B00E94610441E08981811140E0602F812F10
S11309C00E94C7030F90DF91CF911F910F9108955B
S11309D085B7826085BF8BB780648BBF80E0089544
S11309E015BC86E084BD85B5816085BD89B780640A
S11309F089BF80E0089560916000709161008091EA
S1130A0062009091630008951F920F920FB60F92A7
S1130A1011248F939F93AF93BF9386E084BD8091FD
S1130A2064008F5F80936400809164008430A9F433
S1130A30109264008091600090916100A091620026
S1130A40B09163000196A11DB11D80936000909345
S1130A506100A0936200B0936300BF91AF919F9136
S1130A608F910F900FBE0F901F901895EE0FFF1FE0
S10F0A700590F491E02D0994F894FFCF58
S9030000FC
