S02700004F6E2D64656D616E642054726166666963206C6967687420636F6E74726F6C2E7372656372
S11300000C9434000C9448000C9446000C94460064
S11300100C9446000C94F9040C9446000C9446008D
S11300200C9446000C9446000C9446000C94460034
S11300300C9446000C9446000C9446000C94460024
S11300400C9446000C9446000C9446000C94460014
S11300500C94460013011D0152016901A001FD0128
S11300602C0207016502B50211241FBECFE5D8E0BA
S1130070DEBFCDBF20E0A0E6B0E001C01D92A537F1
S1130080B207E1F70E941B030C9431050C940000A5
S11300901F920F920FB60F9211248F9380916A00D2
S11300A0833041F080916A00843021F080916A00AD
S11300B0853039F481E080936B0080916A008093ED
S11300C074008F910F900FBE0F901F901895813080
S11300D0F9F088F0823049F1833099F560E080E0EE
S11300E00E94140360E081E00E94140360E082E057
S11300F00E941403089560E080E00E94100360E011
S113010081E00E94140360E082E00E9414030895D9
S113011060E080E00E94140360E081E00E94180324
S113012060E082E00E941403089560E080E00E9491
S1130130140360E081E00E94140360E082E00E9406
S1130140100308958130F9F088F0823049F183304A
S113015099F561E080E00E94140361E081E00E946F
S1130160140361E082E00E941403089561E080E0DA
S11301700E94100361E081E00E94140361E082E0C8
S11301800E941403089561E080E00E94140361E07A
S113019081E00E94180361E082E00E941403089544
S11301A061E080E00E94140361E081E00E94140396
S11301B061E082E00E941003089561E080E00E9403
S11301C00C0361E081E00E940C0361E082E00E9484
S11301D00C0383E00E94A20060E080E00E940C0314
S11301E060E081E00E940C0360E082E00E940C0366
S11301F083E00E94670063E082E00E940503789434
S11302000E9409030E94E50410926B000895E09196
S11302106B008E2F90E08A309105C8F7FC01E65DF3
S1130220FF4F0C942B0510926A0080916A00809312
S1130230740082E080936B00EACF81E080936A00CF
S113024080917400853021F486E080936B001BC09C
S113025080917400833021F080917400843099F48B
S113026089E080936B0083E00E94670083E00E9432
S1130270A2000E94F0046093700070937100809358
S113028072009093730080916A00809374000E94BE
S1130290F00460936C0070936D0080936E009093F3
S11302A06F00B5CF82E080936A0080916A008093EA
S11302B0740083E080936B000E94A2000E94F0040B
S11302C060936C0070936D0080936E0090936F0048
S11302D09ECF83E080936A0080E00E94670082E002
S11302E00E94A2000E94F00400916C0010916D0025
S11302F020916E0030916F0008571C4E2F4F3F4FD6
S1130300601771078207930708F481CF0E94F004F5
S113031060936C0070936D0080936E0090936F00F7
S113032060937000709371008093720090937300D7
S113033084E080936B0080916A008093740067CF9F
S113034084E080936A000E94F00400917000109190
S11303507100209172003091730006501F4F2F4F8F
S11303603F4F601771078207930768F00E94F004FB
S11303706093700070937100809372009093730087
S113038081E00E94670082E00E94A2000E94F004C3
S113039000916C0010916D0020916E0030916F00FF
S11303A008571C4E2F4F3F4F601771078207930762
S11303B008F42DCF0E94F00460936C0070936D00DC
S11303C080936E0090936F0080917400833041F4A9
S11303D085E080936B0080916A008093740017CF4E
S11303E080917400853009F012CF83E080936B0014
S11303F080916A00809374000ACF85E080936A003C
S113040082E00E94670080E00E94A2000E94F00443
S113041000916C0010916D0020916E0030916F007E
S113042008571C4E2F4F3F4F6017710782079307E1
S113043008F4EDCE0E94F00460936C0070936D009C
S113044080936E0090936F0084E080936B008091A2
S11304506A0080937400DBCE86E080936A0082E0B9
S11304600E94670080E00E94A2000E94F0040091B4
S11304706C0010916D0020916E0030916F00085750
S11304801C4E2F4F3F4F601771078207930708F4E4
S1130490BECE0E94F00460936C0070936D00809354
S11304A06E0090936F0088E080936B0080916A00E7
S11304B0809374000E94F004609370007093710044
S11304C08093720090937300A2CE88E080936A00B8
S11304D00E94F0040091700010917100209172004C
S11304E03091730006501F4F2F4F3F4F6017710715
S11304F08207930780F00E94F00460937000709369
S11305007100809372009093730081E00E946700F1
S113051081E00E94A20061E080E00E9410030E943A
S1130520F00400916C0010916D0020916E003091E8
S11305306F0008571C4E2F4F3F4F601771078207FB
S1130540930708F464CE0E94F00460936C007093E7
S11305506D0080936E0090936F0082E080936B0037
S113056080916A008093740052CE89E080936A007F
S11305700E94F004009170001091710020917200AB
S11305803091730006501F4F2F4F3F4F6017710774
S11305908207930780F00E94F004609370007093C8
S11305A07100809372009093730081E00E94670051
S11305B081E00E94A20061E082E00E9410030E9498
S11305C0F00400916C0010916D0020916E00309148
S11305D06F0008571C4E2F4F3F4F6017710782075B
S11305E0930708F414CE0E94F00460936C00709397
S11305F06D0080936E0090936F0086E080936B0093
S113060080916A008093740002CE40E00E9422032D
S113061008950E94DD04089541E00E942203089594
S113062041E00E94BC03089540E00E94BC03089589
S11306300E94C10408950E94DD000E94070180E029
S113064090E00895613051F138F0623009F448C007
S1130650633009F466C086C041110FC04AB321E07B
S113066030E0B90102C0660F771F8A95E2F7CB012B
S1130670809584238ABB80E00895413009F074C0DA
S11306804AB321E030E0B90102C0660F771F8A95B2
S1130690E2F7CB01842B8ABB80E0089541110FC09F
S11306A047B321E030E0B90102C0660F771F8A9595
S11306B0E2F7CB018095842387BB80E00895413025
S11306C009F054C047B321E030E0B90102C0660F1D
S11306D0771F8A95E2F7CB01842B87BB80E00895CE
S11306E041110FC044B321E030E0B90102C0660FEC
S11306F0771F8A95E2F7CB018095842384BB80E041
S113070008954130A9F544B321E030E0B90102C0B5
S1130710660F771F8A95E2F7CB01842B84BB80E0B8
S1130720089541110FC041B321E030E0B90102C086
S1130730660F771F8A95E2F7CB018095842381BBEE
S113074080E008954130B1F441B321E030E0B901D3
S113075002C0660F771F8A95E2F7CB01842B81BB19
S113076080E0089581E0089583E0089583E008958A
S113077083E0089583E00895613051F138F06230E8
S113078009F448C0633009F466C086C041110FC043
S11307904BB321E030E0B90102C0660F771F8A95A0
S11307A0E2F7CB01809584238BBB80E00895413030
S11307B009F074C04BB321E030E0B90102C0660F08
S11307C0771F8A95E2F7CB01842B8BBB80E00895D9
S11307D041110FC048B321E030E0B90102C0660FF7
S11307E0771F8A95E2F7CB018095842388BB80E04C
S11307F00895413009F054C048B321E030E0B90114
S113080002C0660F771F8A95E2F7CB01842B88BB61
S113081080E0089541110FC045B321E030E0B901F3
S113082002C0660F771F8A95E2F7CB018095842377
S113083085BB80E008954130A9F545B321E030E05F
S1130840B90102C0660F771F8A95E2F7CB01842BAA
S113085085BB80E0089541110FC042B321E030E030
S1130860B90102C0660F771F8A95E2F7CB01809524
S1130870842382BB80E008954130B1F442B321E087
S113088030E0B90102C0660F771F8A95E2F7CB0109
S1130890842B82BB80E0089581E0089584E008956C
S11308A084E0089584E0089584E008956130F9F0C7
S11308B030F06230A1F1633009F449C060C099B3EB
S11308C021E030E0B901082E02C0660F771F0A94B8
S11308D0E2F7292F30E026233723B90102C07595AA
S11308E067958A95E2F7FA01608380E0089596B3EC
S11308F021E030E0B901082E02C0660F771F0A9488
S1130900E2F7292F30E026233723B90102C0759579
S113091067958A95E2F7FA01608380E0089593B3BE
S113092021E030E0B901082E02C0660F771F0A9457
S1130930E2F7292F30E026233723B90102C0759549
S113094067958A95E2F7FA01608380E0089590B391
S113095021E030E0B901082E02C0660F771F0A9427
S1130960E2F7292F30E026233723B90102C0759519
S113097067958A95E2F7FA01608380E0089581E043
S113098008950F931F93CF93DF931F92CDB7DEB7D4
S1130990182F062FAE014F5F5F4F0E94560441E0AF
S11309A08981811140E0602F812F0E94BC030F9048
S11309B0DF91CF911F910F91089585B7826085BF14
S11309C08BB780648BBF80E0089515BC86E084BD3E
S11309D085B5816085BD89B7806489BF80E008954D
S11309E06091600070916100809162009091630059
S11309F008951F920F920FB60F9211248F939F9315
S1130A00AF93BF9386E084BD809164008F5F809331
S1130A106400809164008430A9F410926400809191
S1130A20600090916100A0916200B0916300019612
S1130A30A11DB11D8093600090936100A09362009A
S1130A40B0936300BF91AF919F918F910F900FBEB0
S1130A500F901F901895EE0FFF1F0590F491E02D55
S1090A600994F894FFCF95
S9030000FC
